:100000000C94E4100C9401110C9401110C94011146
:100010000C9401110C9401110C9401110C94A41472
:100020000C9401110C9401110C9401110C94011108
:100030000C9401110C9401110C9401110C940111F8
:100040000C9401110C9401110C9401110C940111E8
:100050000C9401110C9401110C9401110C940111D8
:100060000C9401110C9401115500000000000000D7
:1000700000000000000000001C0000000000000064
:1000800000000000000000007138665FAA3F715F49
:100090009F7F7F5599554800000000000000000038
:1000A0000000000000000000550000001F000000DC
:1000B00066000000330000000000000000000000A7
:1000C00000000000000000009F0000002400550018
:1000D000000000003F000000660000002A001F0032
:1000E000000000001C0000000000000000000000F4
:1000F000DF00000000001F00000000000000000002
:10010000DA00000019005500480000000800000057
:1001100000000800710000001C000000000000004A
:1001200000002A005C000000FF0000996D00330011
:10013000E219003391003F00FF0000917F003F0073
:10014000DA330024BF00990000007F6D1C9108C6BF
:10015000004C3F5F6D9F3F4C00008D91247F19B68E
:100160003855487F6D48388DFF00FF00FF1FFF2E78
:10017000FF00FF00FF00FF00FF00FF00FF1CFF1F4C
:10018000FF00FF00FF00E7009F00000000003F00AD
:100190005F000000000024008D000000000033001C
:1001A0005F00000000003300000000005F0000005E
:1001B0000000330008000000000000003F000000C5
:1001C000000024001F000000AA008B00DA00990044
:1001D000AA00A200D4009F00AA009F00D0009900AE
:1001E000AA009F00C60091007F00006D3F00240020
:1001F0001C00004C00001F006D00006D4800330023
:100200000000003F0000380000000000000000086F
:100210000038000000080008000800000000001C72
:1002200000081F000000001FE500CC33E26DDA8DEE
:10023000E200D038DF48C624E200CC2EE51FDA8D7C
:10024000DF1CD419E200BF1900000000B600000056
:10025000000000000000000000000000BF000000DF
:10026000000000000000000000000000000000008E
:1002700000006D0000000000000000000000000011
:100280000000480000000000BF0000009400AA0029
:100290006D000000DA000000B60000007F00A20040
:1002A0006A000000CC000000D4000000CC00000078
:1002B000B6000000D4000000CC000000D400000014
:1002C000BF000000DA0000000000087F00005508B1
:1002D00000191F4C00001F0000001C7F00006D0073
:1002E00000002448000019085500B9005F00C6004E
:1002F0007100B6002E00BF004800BF003F00C600DE
:100300005500C6006D00B9006D000000000000003F
:1003100000000000000000006D0000000000000070
:1003200000000000000000000000000000000000CD
:1003300000000000000000000000000000000000BD
:100340000000000000000000E2000055FF0073996B
:10035000D4000000FF003866E200006DFF006D9FD2
:10036000DA001500FF00557F4C000000000000007F
:100370003800000000000000000000000000000045
:100380000800000000000000000000000000000065
:10039000000000000000000000000000000000005D
:1003A00000000000000000008D001C0094004800C8
:1003B0007F00241C7F0024001F0000003300000089
:1003C0004C0000006D000000FF000000FF00000076
:1003D000DF550000FF000000FF000000FF000000EC
:1003E000E2240000FF005F00000066DA001FDF7FEC
:1003F00000381CDF0000FF3300088DD40055DA9967
:100400001C6671CC2438DA7F1700B2000000AA0005
:100410000000A2000000B6000000AA000000AA0030
:100420000000AA000800A200E50000007F00000014
:10043000CC0000008D000000E20000006D00000014
:10044000C60000007F000000000000000000330034
:10045000000000001F0024000000000000001C003D
:100460000000000000000800710048008D00380006
:1004700055004C008B0055007F0033007F001C00AE
:100480006D00380091000000E90000240000080021
:10049000B200080024000000FF0019480000000816
:1004A000CC001F3F0000080000000800E5085F1CAA
:1004B0003F557F5FB6557F1900000000FF00080020
:1004C000001C0000FF000800660000006D00000036
:1004D000240000007300000033000000450000000D
:1004E000000000005C000000E50048000000001C67
:1004F000BF00710000001F00DF006D000000080851
:10050000B6007F0000003F0000000000FF00000078
:1005100000000000FF00000000000000FF000000DD
:1005200000000000FF0000002400000000000000A8
:1005300000000000000000000000000000000000BB
:100540000000000000000000FF000000FF000000AD
:10055000FF000000FF000000FF001900FF00000086
:10056000FF007100FF001F0000000000FF000000FE
:1005700000000000FF00000800000000FF00000075
:1005800000240000FF003800910000006600000019
:100590003F0000004800000071000000550000000E
:1005A0005F0000006D000000E2000055AA0000009E
:1005B000C60000339F000000DF00003FB2000000D3
:1005C000BF00001CAA000000BF5FB6D46D91DA998D
:1005D0008DBFB6B69F91B291CC71B6DA7F9FDFAA7C
:1005E000AAD4BFB6BFAA9F9F0000B9000000B60002
:1005F0000000AA000000AA000000AA000000AA0053
:100600000000AA000000AA00FF00E50000007F7FB4
:10061000DA00FF0000486600FF00FF0000005F6D89
:10062000FF00FF00001C7F0000000000FF00000032
:10063000002A0000FF00001900000000FF00000871
:1006400000480000FF001F1F48000000730000006A
:10065000170000001F000000000000008B000000D9
:100660003F0000005C000000E500003819001500A4
:1006700094003F0024000000DA00080091004800C8
:100680009F003F0099005F003F082A2ACC1F6D4859
:100690004C6D383FC63F7F5F9F7FC69FDFAAD4B6B1
:1006A000C6BFCCAABFB2B6717F0000005C000800D4
:1006B00024001C006D000000710033006600000083
:1006C0004800150055000000FF0000915F19000070
:1006D000CC000071B6000000FF00008D8D08000006
:1006E000DA000071BF00000000007F331C00E20050
:1006F00000387F084800DF191F0091241F00E50023
:10070000003F8D1C481CDA1F7F00380024001C00AD
:100710001C002E00660008007F003F001C001C002B
:10072000330038005F000000FF00009F000000243D
:10073000DF19199100000000FF0000CC0033007F9A
:10074000DF001F911F00000000000000FF000000FC
:1007500000000000FF00000000000000FF0000009B
:1007600000000000FF2448088D0038242A000008FB
:10077000385517007F0008007F0055386D002400B1
:100780006D0845008D000000DF005F3800006A0042
:1007900091006D0000005F00DA00714800005F000A
:1007A0008D00660000003F0000000000FF00000018
:1007B00000000000FF00000000000000FF0000003B
:1007C00000000000FF000000AA004C00DA007100E9
:1007D000B6004C00CC006D00B6004800D4007F008D
:1007E000AA006600BF005500D400000800005F00AA
:1007F0009100000000000000C600001F000055002E
:100800009100000000000000000000083F00000010
:1008100000000000E51C000000000000480000008F
:1008200000000000E200000099001C009F0038005A
:10083000910066009900480094001F009F0033005B
:10084000990055009F000800FF0000660000001C92
:10085000B200AA4800001900FF002A7F0000003FF4
:10086000AA0099480000000000000000FF000000FE
:1008700000000000FF00000000000000FF0000007A
:1008800000080000FF000019FF00A200FF00B600F2
:10089000E700D000FF00B600FF00AA00FF00CC0078
:1008A000E700BF00E900A200DA00AA08B20000AA2F
:1008B0001F00DA00B6000099C600B61CB20000B6F0
:1008C0001500DA00BF00007F00000000E200000019
:1008D00000000000E200000000000000E200000054
:1008E00000000000DF000000FF91E248FF00FF7100
:1008F000E999FF8DFF3FFF2AFF99E738FF00FF6D61
:10090000E79FFF91FF2EFF00B20008550000000096
:100910003800480000000000B6000055000000004C
:100920001F004C000000000000000000CC00000090
:1009300000000000BF00000800000000C60000002A
:1009400000000000BF000000B62AB21FDF1CD48BDD
:10095000CC33CC6AD000C645DA00B94CDF00DA7F70
:10096000C655C66DCC00BF3FFF007F0000000000F1
:100970009F00FF0000240000DF00DF0000000800EF
:10098000DA00C600661F4C0000000000FF002A8D40
:10099000005500712400FF5500380000FF3800AA00
:1009A000005F24AAB26691486D00000073003F000A
:1009B0001C001C007F00550071007100730048008E
:1009C00055006D005500000000000000CF8B0000B6
:1009D0009E1701006EA301003D2F02000CBB020018
:1009E000DC460300ABD203007B5E04004AEA04004D
:1009F00019760500E9010600B88D06008819070080
:100A000057A5070026310800F6BC0800C5480900B4
:100A100095D4090064600A0033EC0A0003780B00E7
:100A2000D2030C00A28F0C00711B0D0040A70D001B
:100A300010330E00DFBE0E00AF4A0F007ED60F004F
:100A40004D6210001DEE1000EC791100BC05120083
:100A50008B9112005A1D13002AA91300F9341400B7
:100A6000C8C01400984C150067D8150037641600EC
:100A700006F01600D57B1700A50718007493180020
:100A8000441F190013AB1900E2361A00B2C21A0053
:100A9000814E1B0051DA1B0020661C00EFF11C0088
:100AA000BF7D1D008E091E005E951E002D211F00BA
:100AB000FCAC1F00CC3820009BC420006B502100F0
:100AC0003ADC210009682200D9F32200A87F230024
:100AD000780B24004797240016232500E6AE250056
:100AE000B53A260084C626005452270023DE27008C
:100AF000F3692800C2F5280091812900610D2A00C0
:100B000030992A0000252B00CFB02B009E3C2C00F2
:100B10006EC82C003D542D000DE02D00DC6B2E0026
:100B2000ABF72E007B832F004A0F30001A9B30005A
:100B3000E9263100B8B23100883E320057CA32008F
:100B400027563300F6E13300C56D340095F93400C3
:100B50006485350034113600039D3600D2283700F5
:100B6000A2B437007140380040CC3800105839002A
:100B7000DFE33900AF6F3A007EFB3A004D873B0060
:100B80001D133C00EC9E3C00BC2A3D008BB63D0092
:100B90005A423E002ACE3E00F9593F00C9E53F00C7
:100BA0009871400067FD40003789410006154200FA
:100BB000D6A04200A52C430074B84300444444002E
:100BC00013D04400E35B4500B2E745008173460063
:100BD00051FF4600208B4700F0164800BFA2480096
:100BE0008E2E49005EBA49002D464A00FCD14A00CB
:100BF000CC5D4B009BE94B006B754C003A014D00FE
:100C0000098D4D00D9184E00A8A44E0078304F0031
:100C100047BC4F0016485000E6D35000B55F510066
:100C200085EB51005477520023035300F38E530099
:100C3000C21A540092A654006132550030BE5500CD
:100C4000004A5600CFD556009F6157006EED570001
:100C50003D7958000D055900DC905900AC1C5A0034
:100C60007BA85A004A345B001AC05B00E94B5C0069
:100C7000B9D75C0088635D0057EF5D00277B5E009D
:100C8000F6065F00C5925F00951E600064AA6000D2
:100C90003436610003C26100D24D6200A2D9620005
:100CA0007165630041F16300107D6400DF08650039
:100CB000AF9465007E2066004EAC66001D3867006C
:100CC000ECC36700BC4F68008BDB68005B676900A2
:100CD0002AF36900F97E6A00C90A6B0098966B00D6
:100CE00068226C0037AE6C00063A6D00D6C56D0008
:100CF000A5516E0075DD6E0044696F0013F56F003D
:100D0000E3807000B20C7100819871005124720070
:100D100020B07200F03B7300BFC773008E537400A5
:100D20005EDF74002D6B7500FDF67500CC827600D9
:100D30009B0E77006B9A77003A2678000AB278000B
:100D4000D93D7900A8C9790078557A0047E17A0041
:100D5000176D7B00E6F87B00B5847C0085107D0074
:100D6000549C7D0024287E00F3B37E00C23F7F00A8
:100D700092CB7F006157800031E38000006F8100DB
:100D8000CFFA81009F8682006E1283003D9E830011
:100D90000D2A8400DCB58400AC4185007BCD850044
:100DA0004A5986001AE58600E9708700B9FC870079
:100DB000888888005714890027A08900F62B8A00AC
:100DC000C6B78A0095438B0064CF8B00345B8C00E0
:100DD00003E78C00D3728D00A2FE8D00718A8E0015
:100DE00041168F0010A28F00E02D9000AFB9900047
:100DF0007E4591004ED191001D5D9200EDE892007C
:100E0000BC7493008B0094005B8C94002A189500AE
:100E1000F9A39500C92F960098BB960068479700E4
:100E200037D39700065F9800D6EA9800A576990018
:100E300075029A00448E9A00131A9B00E3A59B004A
:100E4000B2319C0082BD9C0051499D0020D59D007F
:100E5000F0609E00BFEC9E008F789F005E04A000B3
:100E60002D90A000FD1BA100CCA7A1009C33A200E7
:100E70006BBFA2003A4BA3000AD7A300D962A4001B
:100E8000A9EEA400787AA5004706A6001792A6004E
:100E9000E61DA700B5A9A7008535A80054C1A80084
:100EA000244DA900F3D8A900C264AA0092F0AA00B8
:100EB000617CAB003108AC000094AC00CF1FAD00EA
:100EC0009FABAD006E37AE003EC3AE000D4FAF001E
:100ED000DCDAAF00AC66B0007BF2B0004B7EB10054
:100EE0001A0AB200E995B200B921B30088ADB30087
:100EF0005839B40027C5B400F650B500C6DCB500BB
:100F00009568B60065F4B6003480B700030CB800ED
:100F1000D397B800A223B90072AFB900413BBA0021
:100F200010C7BA00E052BB00AFDEBB007E6ABC0057
:100F30004EF6BC001D82BD00ED0DBE00BC99BE008A
:100F40008B25BF005BB1BF002A3DC000FAC8C000BE
:100F5000C954C10098E0C100686CC20037F8C200F3
:100F60000784C300D60FC400A59BC4007527C50025
:100F700044B3C500143FC600E3CAC600B256C7005A
:100F800082E2C700516EC80021FAC800F085C9008E
:100F9000BF11CA008F9DCA005E29CB002EB5CB00C1
:100FA000FD40CC00CCCCCC009C58CD006BE4CD00F7
:100FB0003A70CE000AFCCE00D987CF00A913D0002A
:100FC000789FD000472BD10017B7D100E642D2005E
:100FD000B6CED200855AD30054E6D3002472D40092
:100FE000F3FDD400C389D5009215D60061A1D600C7
:100FF000312DD70000B9D700D044D8009FD0D800F9
:101000006E5CD9003EE8D9000D74DA00DDFFDA002D
:10101000AC8BDB007B17DC004BA3DC001A2FDD0060
:10102000EABADD00B946DE0088D2DE00585EDF0095
:1010300027EADF00F675E000C601E100958DE100CA
:101040006519E20034A5E2000331E300D3BCE300FC
:10105000A248E40072D4E4004160E50010ECE50031
:10106000E077E600AF03E7007F8FE7004E1BE80064
:101070001DA7E800ED32E900BCBEE9008C4AEA0099
:101080005BD6EA002A62EB00FAEDEB00C979EC00CE
:101090009905ED006891ED00371DEE0007A9EE00FF
:1010A000D634EF00A6C0EF00754CF00044D8F00035
:1010B0001464F100E3EFF100B27BF2008207F30069
:1010C0005193F300211FF400F0AAF400BF36F5009D
:1010D0008FC2F5005E4EF6002EDAF600FD65F700D1
:1010E000CCF1F7009C7DF8006B09F9003B95F90005
:1010F0000A21FA00D9ACFA00A938FB0078C4FB0039
:101100004850FC0017DCFC00E667FD00B6F3FD006C
:10111000857FFE00550BFF002497FF00F32200019E
:10112000C3AE0001923A010162C6010131520201CF
:1011300000DE0201D06903019FF503016F81040104
:101140003E0D05010D990501DD240601ACB0060137
:101150007B3C07014BC807011A540801EADF08016C
:10116000B96B090188F7090158830A01270F0B01A0
:10117000F79A0B01C6260C0195B20C01653E0D01D4
:1011800034CA0D0104560E01D3E10E01A26D0F0108
:1011900072F90F014185100111111101E09C11013B
:1011A000AF2812017FB412014E4013011ECC13016F
:1011B000ED571401BCE314018C6F15015BFB1501A5
:1011C0002B871601FA121701000000000000000032
:1011D000000000000000000000000000000000000F
:1011E00000000000000000000000000000000000FF
:1011F00000000000000000000000000000000000EF
:1012000000000000000000000100000001000000DC
:1012100001000000010000000100000001000000CA
:1012200001000000010000000100000001000000BA
:1012300001000000010000000100000001000000AA
:10124000010000000100000000000000000000009C
:10125000000000000000000000000000000000008E
:10126000000000000000000001000000010000007C
:10127000010000000100000001000000010000006A
:10128000010000000100000001000000010000005A
:10129000010000000100000001000000010000004A
:1012A0000100000001000000030000000300000036
:1012B0000300000003000000030000000300000022
:1012C0000300000003000000000000000000000018
:1012D000000000000000000000000000000000000E
:1012E00001000000010000000100000001000000FA
:1012F00001000000010000000100000001000000EA
:1013000001000000010000000500000005000000D1
:1013100005000000050000000500000005000000B9
:1013200005000000050000000500000005000000A9
:101330000700000007000000070000000700000091
:10134000070000000700000000000000000000008F
:10135000000000000000000001000000010000008B
:101360000100000001000000010000000100000079
:101370000100000001000000050000000500000061
:101380000500000005000000050000000500000049
:1013900005000000050000000D0000000D00000029
:1013A0000D0000000D0000000D0000000D00000009
:1013B0000D0000000D0000000F0000000F000000F5
:1013C0000F0000000F0000000000000000000000FF
:1013D000000000000000000001000000010000000B
:1013E00001000000010000000100000001000000F9
:1013F00009000000090000000900000009000000C9
:1014000009000000090000000D0000000D000000B0
:101410000D0000000D0000000D0000000D00000098
:101420001D0000001D0000001D0000001D00000048
:101430001D0000001D0000001F0000001F00000034
:101440001F0000001F00000000000000000000005E
:101450000000000001000000010000000100000089
:101460000100000001000000090000000900000068
:10147000090000000900000009000000150000003C
:101480001500000015000000150000001500000008
:10149000150000002D0000002D0000002D000000B0
:1014A0002D0000002D0000003D0000003D00000068
:1014B0003D0000003D0000003D0000003F00000036
:1014C0003F0000003F00000000000000000000009E
:1014D0000000000001000000010000000100000009
:1014E00001000000110000001100000011000000C8
:1014F0001100000011000000290000002900000078
:1015000029000000290000002D0000002D0000002F
:101510002D0000002D0000005D0000005D000000B7
:101520005D0000005D0000005D0000007D00000027
:101530007D0000007D0000007D0000007F000000B5
:101540007F0000007F00000000000000000000009D
:101550000100000001000000010000000100000087
:101560001100000011000000110000001100000037
:1015700029000000290000002900000029000000C7
:101580005500000055000000550000005500000007
:10159000AD000000AD000000AD000000AD00000097
:1015A000DD000000DD000000DD000000DD000000C7
:1015B000FD000000FD000000FD000000FD00000037
:1015C000FF000000FF00000000000000000000001D
:1015D0000100000001000000010000000100000007
:1015E000210000002100000021000000490000004F
:1015F000490000004900000049000000A900000067
:10160000A9000000A9000000AD000000AD0000002E
:10161000AD0000006D0100006D0100006D010000D3
:101620006D010000BD010000BD010000BD01000012
:10163000FD010000FD010000FD010000FD010000B2
:10164000FF010000FF01000000000000000000009A
:101650000100000001000000010000002100000066
:101660002100000021000000910000009100000016
:10167000910000002901000029010000290100005B
:101680005501000055010000550100005501000002
:10169000AD010000AD010000AD010000DD02000061
:1016A000DD020000DD020000BD030000BD030000FC
:1016B000BD030000FD030000FD030000FD0300006A
:1016C000FF030000FF030000000000000000000016
:1016D00001000000010000000100000041000000C6
:1016E0004100000041000000910000009100000056
:1016F000290100002901000029010000A9020000C1
:10170000A9020000A9020000AD020000AD02000025
:10171000AD020000AD050000AD050000AD05000004
:10172000DD060000DD0600007D0700007D070000EB
:101730007D070000FD070000FD070000FD07000019
:10174000FF070000FF07000000000000000000008D
:101750000100000001000000410000004100000005
:101760004100000011010000110100001101000002
:101770004902000049020000A9040000A904000079
:10178000A90400005505000055050000AD06000045
:10179000AD060000AD0600006D0B00006D0B0000F3
:1017A000DD0D0000DD0D0000DD0D00007D0F0000EF
:1017B0007D0F00007D0F0000FD0F0000FD0F0000F9
:1017C000FF0F0000FF0F00000000000000000000FD
:1017D0000100000001000000810000008100000005
:1017E00021020000210200002102000091040000FB
:1017F00091040000290900002909000029090000BE
:10180000A90A0000A90A0000AD0A0000AD0A000004
:10181000AD0D0000AD0D0000AD0D0000DD160000A7
:10182000DD160000BD1B0000BD1B0000BD1B00003D
:10183000FD1E0000FD1E0000FD1F0000FD1F00003A
:10184000FF1F0000FF1F000000000000000000005C
:101850000100000001000000810000008100000084
:101860002102000021020000910800009108000000
:10187000290900002909000029090000A914000015
:10188000A91400005515000055150000AD16000004
:10189000AD160000AD2D0000AD2D0000AD2D0000F7
:1018A000DD2E0000DD2E0000BD3B0000BD3B000032
:1018B000FD3E0000FD3E0000FD3F0000FD3F00003A
:1018C000FF3F0000FF3F000000000000000000009C
:1018D0000100000001000000010100000101000002
:1018E000210400002104000091080000910800007C
:1018F0004912000049120000292500002925000096
:10190000A92A0000A92A0000AD2A0000AD2A000083
:10191000AD350000AD3500006D5B00006D5B000073
:10192000DD6E0000DD6E0000BD770000BD770000B9
:10193000FD7D0000FD7D0000FD7F0000FD7F0000BB
:10194000FF7F0000FF7F000000000000010000009A
:101950000100000001010000010100004108000039
:101960004108000011110000111100009124000035
:10197000912400002929000029290000A952000013
:10198000A95200005555000055550000AD5A000001
:10199000AD5A0000ADAD0000ADAD0000DDB60000F9
:1019A000DDB60000DDDD0000DDDD00007DEF0000C4
:1019B0007DEF0000FDFD0000FDFD0000FDFF0000CB
:1019C000FDFF0000FFFF000000000000010000001C
:1019D00001000000010200000102000041080000B7
:1019E0004108000021220000212200009144000053
:1019F0009144000029490000A9940000A994000026
:101A0000A9AA0000A9AA0000ADAA0000ADAA000082
:101A1000ADD60000ADD60000AD6D0100DD76010051
:101A2000DD760100BDBB0100BDBB01007DEF010003
:101A30007DEF0100FDFB0100FDFB0100FDFF01004A
:101A4000FDFF0100FFFF0100000000000100000099
:101A5000010000000102000001020000411000002E
:101A60004110000021420000918800009188000090
:101A7000499200004992000029290100A952010061
:101A8000A95201005555010055550100AD5A0100FC
:101A9000AD5A0100ADAD01006DDB02006DDB02004F
:101AA000DDEE0200DDEE0200BD7B03007DDF030002
:101AB0007DDF0300FDFB0300FDFB0300FDFF0300D2
:101AC000FDFF0300FFFF0300000000000100000015
:101AD000010000000104000001040000812000005A
:101AE0002142000021420000918800009124010061
:101AF000912401002949010029490100A99402000B
:101B0000A9AA0200A9AA0200ADAA0200ADAA020079
:101B1000ADD60200AD6D0500AD6D0500DDB605006A
:101B2000DDB60500DDEE0600BD7B0700BD7B0700CE
:101B3000FDBE0700FDF70700FDF70700FDFF0700EA
:101B4000FDFF0700FFFF070000000000010000008C
:101B5000010000000104000081200000812000003D
:101B600021840000111101001111010091440200B3
:101B7000914402002949020029A5040029A5040076
:101B8000A94A05005555050055550500AD6A0500E3
:101B9000ADB50600ADB50600AD6D0B00DD760B00F2
:101BA000DD760B00DDDD0D00DDDD0D00BDF70E0087
:101BB000FDBE0F00FDBE0F00FDF70F00FDFF0F0083
:101BC000FDFF0F00FFFF0F000000000001000000FC
:101BD0000100000001080000814000008140000079
:101BE0004108010021220200212202009148040044
:101BF000499204004992040029290500A9540A00C9
:101C0000A9540A00A9AA0A00ADAA0A00AD560B0001
:101C1000AD560B00ADAD15006DDB16006DDB16008B
:101C2000DD6E1700BDBB1B00BDBB1B007DEF1D00A3
:101C3000FD7E1F00FD7E1F00FDEF1F00FDFF1F004A
:101C4000FDFF1F00FFFF1F0000000000010000005B
:101C500001000000010800000181000041080200AD
:101C600041080200212204009188040091880400A8
:101C70009124090029490900A9941200A99412008D
:101C8000A94A15005555150055551500AD6A1500A2
:101C9000ADD61A00ADD61A00AD6D2D00DDB62D0003
:101CA000DDEE3600DDEE3600BDBB37007DEF3B00DC
:101CB0007DEF3B00FDFD3E00FDEF3F00FDFF3F00DF
:101CC000FDFF3F00FFFF3F0000000000010000009B
:101CD0000100000001100000018100004108020025
:101CE0004108020021420800918808009124120056
:101CF000912412002949120029292500A9522900FE
:101D0000A9522900A9AA2A00ADAA2A00AD5A2D007D
:101D1000AD5A2D00ADAD3500AD6D5B00DDB65B009D
:101D2000DDB65B00DDEE6E00BD7B6F007DEF7B00FE
:101D30007DEF7B00FDFD7E00FDDF7F00FDFF7F006E
:101D4000FDFF7F00FFFF7F0000000000010000009A
:101D50000110000001100000010101004110040009
:101D60002142080021420800111111009144220073
:101D7000499224002929290029292900A9944A00E7
:101D8000A92A55005555550055555500ADAA550081
:101D9000ADD66A00ADADAD00ADADAD006DDBB6004A
:101DA000DD76BB00DDDDDD00BD7BEF00BD7BEF0040
:101DB0007DDFF700FDFDFD00FDDFFF00FDDFFF0023
:101DC000FDFFFF00FFFFFF0000000000010000001A
:101DD0000120000001200000010202008120080013
:101DE0002184100021222200212222009188440017
:101DF0009124490029494A0029A5940029A5940065
:101E0000A952A900A9AAAA00ADAAAA00AD5AAD007C
:101E1000ADB5D600ADB5D600AD6D6B01DDB66D01CB
:101E2000DDEE7601BDBBBB01BDBBBB01BDF7DE0175
:101E3000FDBEEF01FDFBFB01FDBFFF01FDBFFF018B
:101E4000FDFFFF01FFFFFF01000000000100000097
:101E500001200000010202000102020081201000A6
:101E600041082100212244009188480091249200D9
:101E7000912492002949920029292501A9944A0117
:101E8000A92A55015555550155555501ADAA55017C
:101E9000ADD66A01ADADB501AD6DDB02DDB6DB02DD
:101EA000DDB6DB02DDEE6E03BDBB77037DEFBD0368
:101EB000FDBEDF03FDFBFB03FDFBFB03FDBFFF03DB
:101EC000FDFFFF03FFFFFF03000000000100000013
:101ED0000140000001020400010204008120100002
:101EE00041084100214284009188880091442201E8
:101EF000499224012949490129494901A9945202D9
:101F0000A952A502A9AAAA02ADAAAA02AD5AB5026F
:101F1000ADD65A03AD6D6D05AD6D6D056DDBB605C6
:101F2000DD76BB05DDEEEE06BD7BF7067DEF7D07BA
:101F3000FDBEDF07FDFBF707FDFBF707FD7FFF0792
:101F4000FDFFFF07FFFFFF0700000000010000008A
:101F50000140000001040800814020004108820087
:101F60004108820021428800111111019148240288
:101F70009124490229494A022929A504A9542A057C
:101F8000A9AA54055555550555555505ADAA5605EB
:101F9000AD56AB05ADADB506AD6D6B0BDDB66D0BDE
:101FA000DD6EB70BDDDDDD0DBD7BEF0E7DEFFB0ED6
:101FB0007DEFFB0EFD7EBF0FFDF7EF0FFD7FFF0FE7
:101FC000FDFFFF0FFFFFFF0F0000000001000000FA
:101FD00001800000010408000181400041088200E6
:101FE0002142080121222202212222029188440258
:101FF000912491042949920429292505A99452097B
:10200000A94A950AA9AAAA0AADAAAA0AAD6AD50A36
:10201000ADD65A0DADADB515AD6DDB16DDB6DD1621
:10202000DDEE761BBDBBBB1BBDBBBB1BBD7BEF1D74
:102030007DEFFB1EFDFD7E1FFDF7EF1FFDFFFE1F69
:10204000FDFFFF1FFFFFFF1F000000000100000059
:102050000180000001041000018180004110040192
:1020600021841002212242049188480491441209DB
:10207000499224092949490929A59412A952A91468
:10208000A9AA54155555551555555515ADAA5615AA
:10209000AD5AAD16ADB5D61AAD6D6D2D6DDBB62D45
:1020A000DD76DB2DDDEE6E37BDBB7B37BDF7DE3B6E
:1020B0007DDFF73DFDFDFE3EFDF7DF3FFDFFFE3F0F
:1020C000FDFFFF3FFFFFFF3F000000000100000099
:1020D0000100010001082000018180008120080228
:1020E0004108210421224408918888089144221142
:1020F00091244912294952122929A524A9944A2533
:10210000A94A952AA9AAAA2AADAAAA2AAD6AD52AB5
:10211000ADD66A35ADADB536AD6D5B5BDDB66D5B2D
:10212000DD76BB5DDDEEEE6EBDBB776F7DEFBD771F
:10213000FDBEEF7BFDFDFE7EFDEFBF7FFDFFFD7F62
:10214000FDFFFF7FFFFFFF7F000000000100000098
:1021500001000100010820000101010181200804A3
:10216000410841082142881011111111918844221F
:10217000912491242949922429292929A994524A50
:10218000A952A952A9AA5255ADAA5A55AD5AAD5A4B
:10219000ADD65A6BADADADADAD6DDBB6DDB6DDB672
:1021A000DDEE76BBDDDDDDDDBD7BEFDE7DEF7DEFE2
:1021B000FDBEEFF7FDFDFDFDFDEFBFFFFDFFFDFFE8
:1021C000FDFFFFFFFFFFFFFF11241FBECFEFD8E091
:1021D000DEBFCDBF11E0A0E0B1E0EAE5FFE202C062
:1021E00005900D92AA33B107D9F721E0AAE3B1E037
:1021F00001C01D92AF38B207E1F70E946B140C9436
:102200001F170C940000CF93DF93EC01FC01EE0F3D
:10221000FF1FEE0FFF1FE853F64F259135914591B3
:102220005591611113C05695479537952795D093D1
:102230005601C093550120934D0130934E014093B8
:102240004F0150935001DF91CF910895623079F79B
:10225000A3E0B0E00E9444179B01AC01E8CF982FA7
:10226000977080910001892B80937C00EAE7F0E071
:10227000808180648083089580917A0086FDFCCF00
:1022800080914B012091780090917900E82FF0E047
:10229000EE0FFF1FE65CFE4F392F318320838F5FE7
:1022A00080934B0190914A01891718F010924B01CD
:1022B00080E00E942F1108951092870110928801EA
:1022C000E2E8F1E083E0DF011D928A95E9F70895E5
:1022D000CF93C82F0E94E11690918701292F277074
:1022E00081E0211180E08093850181E0911180E0FF
:1022F00080938601809188018C0F2091820130911A
:10230000830140918401833088F4409384013093A9
:1023100083012093820190938701809388019032FA
:1023200018F0905290938701CF91089590FD03C0CB
:102330002F5F3F5F4F5F83509F5FE5CF80916E01BE
:1023400081111EC080917001811539F081508093F8
:102350007001811102C01092710180917101909100
:102360008C01911551F090918501892B9BB19F7043
:102370008295807F892B8BB9089590918601F5CF46
:1023800080916E01853049F140F4833019F1843039
:10239000C1F0823059F081E0E9CF8630A9F0873072
:1023A000D1F780918B01811113C0F5CF2091890164
:1023B00088E090E002C0959587952A95E2F78160C4
:1023C000D5CF80918E01EFCF80918A01813019F7AE
:1023D0008FE0CCCF80918C01E6CF80918D01E3CF4F
:1023E0000F931F93CF93DF93C9B1CF70C095E09146
:1023F0008901F0E0EC5FFE4FD08180915501909112
:1024000056018897A0F480915701811110C08091E6
:102410006B018270C1FD59C0811509F457C08091CC
:102420008D01811509F452C0109281014FC00091B5
:102430004D0110914E0120914F013091500140917A
:102440005101509152016091530170915401400F1C
:10245000511F621F731F40935101509352016093AB
:1024600053017093540180916F0181111EC0872F19
:102470008F778093540180E480934C014091510107
:1024800050915201609153017091540140175107CE
:102490006207730708F0D0E0781728F180918D016A
:1024A000811509F1109281011EC0082E000C990BB4
:1024B000FC01E158FF4FE717F10514F410925401A5
:1024C00080589F4F95958795D7CF8111D0E0809107
:1024D000C00087FF08C08091C600883FA1F18A3FF5
:1024E00011F40E945C11C2FF1EC080916B0182FD3D
:1024F0001AC00E945C1180917601853050F0809165
:10250000550190915601889720F4809157018115CB
:1025100051F00E94E1161092510110925201109256
:10252000530110925401C0936B01D11539F00E94F0
:10253000091780936F018D2F0E946811DF91CF9151
:102540001F910F910895D1E0CECFCF9380910301D9
:10255000880F809303014B9B05C08160809303012A
:10256000CF9108958E3F09F05DC080916E01811179
:102570001CC0C0918C01C1111DC00E945C118091D2
:102580007601853050F080915501909156018897E1
:1025900020F480915701811541F010925101109261
:1025A0005201109253011092540110926A0110923C
:1025B0006901D6CF2091720130917301409174016D
:1025C00050917501A0ECB9E00E9444179B01AC0149
:1025D00060E07CE886E897E40E942217DA01C901EE
:1025E0004E97A109B109833C9140A105B105C0F402
:1025F00060918901C9010E9403111092510110924A
:1026000052011092530110925401C093570110923D
:102610007201109273011092740110927501C5CF6E
:10262000C0E0F3CF81119CCF8091690190916A0144
:10263000019690936A0180936901843F914009F06B
:102640008FCF81E080936D018BCF0F931F93CF933A
:10265000DF9380916D018115C9F080916E01811128
:1026600055C0EAE3F1E0A8E5B1E08AE491E0218118
:1026700032962C9311961C92119712968E179F07E3
:10268000B1F781E080936E0110926D0180916E012F
:10269000811141C0209147013CED239F912D1124D0
:1026A0009C5E292F30E040915501509156019417BE
:1026B000150649F080915701811105C0609189018B
:1026C000C9010E94031180913B018095809377019D
:1026D00080913D0180958093780180913F018095A4
:1026E0008093790180914101809580937A01809156
:1026F0004301809580937B01809145018095809373
:102700007C01DF91CF911F910F91089510926E017E
:102710000E94B316B9CF0AE311E0C8E5D1E080E02A
:10272000F80191810E5F1F4F292F30E06991799157
:10273000A901461B570B57FF03C0AB01421B530BAC
:1027400041325105E4F0FE01329322938330D9F0F7
:1027500090F497FB992790F9813009F453C08230A7
:1027600009F048C087E080936E0181E0982790933C
:102770008B0183E0D5CF843009F1853089F18F5FFB
:10278000883071F6BECF82E080936E016FEF70E00B
:10279000621B730B86E0759567958A95E1F7633048
:1027A00008F062E060938901809155019091560193
:1027B0000E9403110E945C1184E0B2CF83E08093F9
:1027C0006E01822F807899272038220B2195209343
:1027D0008C01892B11F485E0A3CF10925701FBCF18
:1027E00084E080936E019038990B919590938E01BF
:1027F00086E096CF86E080936E0181E098279093E3
:102800008A018ECF25E020936E01982790938D0149
:1028100082E086CF2A9A0895259A239A2498229AAC
:102820000E940A14229A0E940A148DB58E7F8DBDD3
:102830008DB581608DBD80E58CBD0895CF93DF930C
:102840007894C1ECD0E018828AB1806F8AB98AB1DD
:10285000807F8AB98BB18F608BB962E088E790E0A6
:102860000E94031110925701EAE7F0E0808187602F
:10287000808380818068808310924B0180E00E9479
:102880002F1187E080934A0180E6809300010E9427
:1028900087160E945C110E940C14E0ECF0E080812D
:1028A0008D7F80831092C50087E28093C400888169
:1028B0008061888382E08093B00083E08093B100E0
:1028C0008DE48093B300E0E7F0E080818260808354
:1028D000DF91CF91089584B714BE80916000886124
:1028E00080936000109260000E941E146091890124
:1028F00088E790E00E9403110E942513FDCF80918C
:10290000810190916C019817F1F080936C012A98E5
:102910008EBD0DB407FEFDCF0E940A1480916C019C
:10292000811104C088EC8093700108959091810119
:1029300090FB882783F991FD846092FD82608093EB
:10294000710110927001089578941F920F920FB642
:102950000F9211242F933F934F935F936F937F9325
:102960008F939F93AF93BF93EF93FF9380917201E7
:1029700090917301A0917401B09175010196A11D10
:10298000B11D8093720190937301A0937401B09371
:102990007501809168018F5F809368018A3020F013
:1029A0000E94A512109268010E94F0110E943C1131
:1029B000809180018F5F80938001883030F080911A
:1029C0008D01811102C0109281010E947F140E942A
:1029D0009E11FF91EF91BF91AF919F918F917F9148
:1029E0006F915F914F913F912F910F900FBE0F907C
:1029F0001F901895582F649F90014095549F4095C3
:102A0000200D311D1124832F089520910101309153
:102A10000201822F817099279195819591098827CC
:102A2000947B369527958227932790930201809374
:102A300001010895A0E0B0E0E0E2F5E10C94571741
:102A4000F22EA42FA295A695A695A370AA2EB12C1E
:102A5000C22FC295C695C695C370D0E09FEFA91A44
:102A6000B90A6E019FEFC91AD90A6295660F607E96
:102A7000860F282F30E095E09A9FD0011124FD01A8
:102A8000EC0FFD1FEE0FFF1FE95FFE4F0190F0817D
:102A9000E02DE80FF11DE4909A9D80019B9D100DA3
:102AA0001124C00FD11FCC0FDD1FC95FDE4FE8819D
:102AB000F981E20FF31FC491AC0DBD1DAA0FBB1F1E
:102AC000A95FBE4FED91FC91E20FF31F8491D801F5
:102AD000AC0DBD1DAA0FBB1FA95FBE4FED91FC91B0
:102AE000E20FF31F6491D42FDD0FDD0F4D2F0E94F5
:102AF000FA14182F4D2F6C2F8E2D0E94FA144F2D83
:102B0000440F440F612F0E94FA14CDB7DEB7EAE0FC
:102B10000C947317A0E0B0E0E0E9F5E10C945717CE
:102B200080918701811509F453C0B0907701A0907E
:102B300078018DE7E82E81E0F82E9AE7C92E91E022
:102B4000D92ED0E0C0E011E0009187012A2D4B2D55
:102B50006D2F802F0E941A15982FF70181917F0108
:102B60002FEF30E0281B3109890F921713060CF064
:102B70008FEFF60191916F019095981740F4813C89
:102B800008F0C12B80918101812B80938101110F6D
:102B9000DF5FD330C9F69091810180918B0181155F
:102BA00071F181E0011180E08295880F807E892B90
:102BB00091E0C11101C090E0C92FCC0FCC0FCC0F18
:102BC000C82BC0938101CDB7DEB7EAE00C94731730
:102BD000CDE7D1E080918E0110917901169516957F
:102BE000811110E00E94051520910201219F812D85
:102BF0001124899381E0C038D80761F796CFCC0FB4
:102C0000CC0FCC0FC92BDDCF8F929F92AF92BF928A
:102C1000CF92DF92EF92FF92CF93DF938091870163
:102C2000382F317080FD5EC040918101A7E7B1E08F
:102C3000C2E8D1E08AE791E051E0ED91E695E695B2
:102C4000E69561E06E0F70E22E2F279FF0011124B0
:102C500012962C911297269526952695E20FF11D36
:102C60002881261708F049C0EE0FFF1FEE0FFF1F47
:102C7000E853FE4E85909590A590B590C12CD12C2F
:102C80007601C394022E04C0CC0CDD1CEE1CFF1C8C
:102C90000A94D2F7C820D920EA20FB20CD28CE28DC
:102CA000CF2809F0452B211101C0352B550F219656
:102CB0008A179B0709F0C1CF80918B01811501F123
:102CC00081E0311101C080E0880F880F880F91E00A
:102CD000373009F090E09295990F907E892B842BE4
:102CE00080938101DF91CF91FF90EF90DF90CF90A3
:102CF000BF90AF909F908F900895261B2883B0CFF0
:102D0000330F330F330F342B30938101EBCF80E03F
:102D100090E00E94951784FB552750F985FB4427C6
:102D200040F986FB332730F98038220B219599270B
:102D300083FF9395682F66708770611182E05093CE
:102D40008C0140938B0130938A0120938D019093E5
:102D50008E018093890181E090E00E9495178F5F3A
:102D60008093760108959091890180918E0181115F
:102D700001C0986060918B016195607280918C01B7
:102D800081958071682B692B80918A01813009F4CB
:102D9000606480918D01811101C0606880E090E0E5
:102DA0000E949D17609176016F5F862F653010F04D
:102DB00085E065E08093760181E090E00E949D17B8
:102DC000089510928101109280010E9405152091B2
:102DD0000101309102012078332780918101822BFB
:102DE000982F90649093810190918B01911519F027
:102DF00080658093810180918801811109C0809153
:102E00008A01811103C00E94041608950E948A1548
:102E1000089580918E01811581F080918A01813021
:102E200061F4209179013BE2239F812D112490913F
:102E3000870191FF03C08195089580E00895F8947B
:102E40000C94AB17A1E21A2EAA1BBB1BFD010DC0EF
:102E5000AA1FBB1FEE1FFF1FA217B307E407F5074A
:102E600020F0A21BB30BE40BF50B661F771F881F26
:102E7000991F1A9469F760957095809590959B01BC
:102E8000AC01BD01CF0108950E948617A59F900D4A
:102E9000B49F900DA49F800D911D112408952F9231
:102EA0003F924F925F926F927F928F929F92AF92DA
:102EB000BF92CF92DF92EF92FF920F931F93CF9327
:102EC000DF93CDB7DEB7CA1BDB0B0FB6F894DEBFBE
:102ED0000FBECDBF09942A88398848885F846E84E4
:102EE0007D848C849B84AA84B984C884DF80EE802E
:102EF000FD800C811B81AA81B981CE0FD11D0FB637
:102F0000F894DEBF0FBECDBFED010895A29FB001C2
:102F1000B39FC001A39F700D811D1124911DB29F0D
:102F2000700D811D1124911D0895F999FECF92BD58
:102F300081BDF89A992780B50895262FF999FECF7B
:102F40001FBA92BD81BD20BD0FB6F894FA9AF99AC6
:0A2F50000FBE01960895F894FFCF1C
:102F5A00402100FF060301A805680668090806481B
:102F6A0005C803C8068804E8042807A8022804E854
:102F7A000788074808C800680388010809A808687C
:0A2F8A000048020803E801280100D6
:00000001FF
